{
  "contractName": "CoinFlip",
  "abi": [
    {
      "inputs": [],
      "stateMutability": "nonpayable",
      "type": "constructor"
    },
    {
      "stateMutability": "payable",
      "type": "fallback",
      "payable": true
    },
    {
      "inputs": [],
      "name": "owner",
      "outputs": [
        {
          "internalType": "address",
          "name": "",
          "type": "address"
        }
      ],
      "stateMutability": "view",
      "type": "function",
      "constant": true
    },
    {
      "stateMutability": "payable",
      "type": "receive",
      "payable": true
    },
    {
      "inputs": [
        {
          "internalType": "bool",
          "name": "_guess",
          "type": "bool"
        }
      ],
      "name": "flipCoin",
      "outputs": [
        {
          "internalType": "bool",
          "name": "",
          "type": "bool"
        }
      ],
      "stateMutability": "payable",
      "type": "function",
      "payable": true
    }
  ],
  "bytecode": "0x6080604052348015600e575f80fd5b50335f806101000a81548173ffffffffffffffffffffffffffffffffffffffff021916908373ffffffffffffffffffffffffffffffffffffffff1602179055506103d88061005b5f395ff3fe60806040526004361061002c575f3560e01c80637b8ff38f146100355780638da5cb5b1461006557610033565b3661003357005b005b61004f600480360381019061004a91906101ab565b61008f565b60405161005c91906101e5565b60405180910390f35b348015610070575f80fd5b5061007961014f565b604051610086919061023d565b60405180910390f35b5f8034116100d2576040517f08c379a00000000000000000000000000000000000000000000000000000000081526004016100c9906102b0565b60405180910390fd5b5f6002426100e09190610304565b90505f80821415158415151490508015610145573373ffffffffffffffffffffffffffffffffffffffff166108fc60023461011b9190610361565b90811502906040515f60405180830381858888f19350505050158015610143573d5f803e3d5ffd5b505b8092505050919050565b5f8054906101000a900473ffffffffffffffffffffffffffffffffffffffff1681565b5f80fd5b5f8115159050919050565b61018a81610176565b8114610194575f80fd5b50565b5f813590506101a581610181565b92915050565b5f602082840312156101c0576101bf610172565b5b5f6101cd84828501610197565b91505092915050565b6101df81610176565b82525050565b5f6020820190506101f85f8301846101d6565b92915050565b5f73ffffffffffffffffffffffffffffffffffffffff82169050919050565b5f610227826101fe565b9050919050565b6102378161021d565b82525050565b5f6020820190506102505f83018461022e565b92915050565b5f82825260208201905092915050565b7f596f75206e65656420746f2073656e6420736f6d6520457468657200000000005f82015250565b5f61029a601b83610256565b91506102a582610266565b602082019050919050565b5f6020820190508181035f8301526102c78161028e565b9050919050565b5f819050919050565b7f4e487b71000000000000000000000000000000000000000000000000000000005f52601260045260245ffd5b5f61030e826102ce565b9150610319836102ce565b925082610329576103286102d7565b5b828206905092915050565b7f4e487b71000000000000000000000000000000000000000000000000000000005f52601160045260245ffd5b5f61036b826102ce565b9150610376836102ce565b9250828202610384816102ce565b9150828204841483151761039b5761039a610334565b5b509291505056fea26469706673582212201fd83d78ba7d5a258534e31f5fe38c552defad25c00a96624d25f37048da771464736f6c634300081a0033",
  "immutableReferences": {},
  "source": "// SPDX-License-Identifier: MIT\r\npragma solidity ^0.8.0;\r\n\r\ncontract CoinFlip {\r\n    address public owner;\r\n\r\n    constructor() {\r\n        owner = msg.sender;\r\n    }\r\n\r\n    function flipCoin(bool _guess) public payable returns (bool) {\r\n        require(msg.value > 0, \"You need to send some Ether\");\r\n\r\n        uint256 result = block.timestamp % 2; // Simple coin flip: 0 or 1\r\n        bool win = (_guess == (result == 0));\r\n\r\n        if (win) {\r\n            payable(msg.sender).transfer(msg.value * 2); // Double the bet if the user wins\r\n        }\r\n\r\n        return win;\r\n    }\r\n\r\n    // Fallback function to accept Ether directly to the contract\r\n    fallback() external payable {}\r\n    receive() external payable {}\r\n}\r\n",
  "sourcePath": "C:\\Users\\Srinivasa Rao\\OneDrive\\Desktop\\21VV1A1218\\HTML, CSS and JS\\Flipcoin\\contracts\\CoinFlip.sol",
  "compiler": {
    "name": "solc",
    "version": "0.8.26+commit.8a97fa7a.Emscripten.clang"
  },
  "schemaVersion": "3.4.16",
  "updatedAt": "2024-08-27T12:50:37.783Z",
  "networkType": "ethereum",
  "devdoc": {
    "kind": "dev",
    "methods": {},
    "version": 1
  },
  "userdoc": {
    "kind": "user",
    "methods": {},
    "version": 1
  }
}